{
  "_format": "hh-sol-artifact-1",
  "contractName": "AspectEnabledSimpleAccount",
  "sourceName": "contracts/samples/AspectEnabledSimpleAccount.sol",
  "abi": [
    {
      "inputs": [
        {
          "internalType": "contract IEntryPoint",
          "name": "anEntryPoint",
          "type": "address"
        }
      ],
      "stateMutability": "nonpayable",
      "type": "constructor"
    },
    {
      "anonymous": false,
      "inputs": [
        {
          "indexed": false,
          "internalType": "address",
          "name": "previousAdmin",
          "type": "address"
        },
        {
          "indexed": false,
          "internalType": "address",
          "name": "newAdmin",
          "type": "address"
        }
      ],
      "name": "AdminChanged",
      "type": "event"
    },
    {
      "anonymous": false,
      "inputs": [
        {
          "indexed": true,
          "internalType": "address",
          "name": "beacon",
          "type": "address"
        }
      ],
      "name": "BeaconUpgraded",
      "type": "event"
    },
    {
      "anonymous": false,
      "inputs": [
        {
          "indexed": false,
          "internalType": "uint8",
          "name": "version",
          "type": "uint8"
        }
      ],
      "name": "Initialized",
      "type": "event"
    },
    {
      "anonymous": false,
      "inputs": [
        {
          "indexed": true,
          "internalType": "contract IEntryPoint",
          "name": "entryPoint",
          "type": "address"
        },
        {
          "indexed": true,
          "internalType": "address",
          "name": "owner",
          "type": "address"
        }
      ],
      "name": "SimpleAccountInitialized",
      "type": "event"
    },
    {
      "anonymous": false,
      "inputs": [
        {
          "indexed": true,
          "internalType": "address",
          "name": "implementation",
          "type": "address"
        }
      ],
      "name": "Upgraded",
      "type": "event"
    },
    {
      "inputs": [],
      "name": "addDeposit",
      "outputs": [],
      "stateMutability": "payable",
      "type": "function"
    },
    {
      "inputs": [
        {
          "internalType": "address[]",
          "name": "aspectIds",
          "type": "address[]"
        }
      ],
      "name": "approveAspects",
      "outputs": [],
      "stateMutability": "nonpayable",
      "type": "function"
    },
    {
      "inputs": [
        {
          "internalType": "bytes32",
          "name": "_data",
          "type": "bytes32"
        }
      ],
      "name": "bytes32ToBytes",
      "outputs": [
        {
          "internalType": "bytes",
          "name": "",
          "type": "bytes"
        }
      ],
      "stateMutability": "pure",
      "type": "function"
    },
    {
      "inputs": [
        {
          "internalType": "address[]",
          "name": "aspectIds",
          "type": "address[]"
        }
      ],
      "name": "disApproveAspects",
      "outputs": [],
      "stateMutability": "nonpayable",
      "type": "function"
    },
    {
      "inputs": [],
      "name": "entryPoint",
      "outputs": [
        {
          "internalType": "contract IEntryPoint",
          "name": "",
          "type": "address"
        }
      ],
      "stateMutability": "view",
      "type": "function"
    },
    {
      "inputs": [
        {
          "internalType": "address",
          "name": "dest",
          "type": "address"
        },
        {
          "internalType": "uint256",
          "name": "value",
          "type": "uint256"
        },
        {
          "internalType": "bytes",
          "name": "func",
          "type": "bytes"
        }
      ],
      "name": "execute",
      "outputs": [],
      "stateMutability": "nonpayable",
      "type": "function"
    },
    {
      "inputs": [
        {
          "internalType": "address[]",
          "name": "dest",
          "type": "address[]"
        },
        {
          "internalType": "uint256[]",
          "name": "value",
          "type": "uint256[]"
        },
        {
          "internalType": "bytes[]",
          "name": "func",
          "type": "bytes[]"
        }
      ],
      "name": "executeBatch",
      "outputs": [],
      "stateMutability": "nonpayable",
      "type": "function"
    },
    {
      "inputs": [],
      "name": "getDeposit",
      "outputs": [
        {
          "internalType": "uint256",
          "name": "",
          "type": "uint256"
        }
      ],
      "stateMutability": "view",
      "type": "function"
    },
    {
      "inputs": [],
      "name": "getNonce",
      "outputs": [
        {
          "internalType": "uint256",
          "name": "",
          "type": "uint256"
        }
      ],
      "stateMutability": "view",
      "type": "function"
    },
    {
      "inputs": [
        {
          "internalType": "address",
          "name": "anOwner",
          "type": "address"
        }
      ],
      "name": "initialize",
      "outputs": [],
      "stateMutability": "nonpayable",
      "type": "function"
    },
    {
      "inputs": [
        {
          "internalType": "address",
          "name": "",
          "type": "address"
        },
        {
          "internalType": "address",
          "name": "",
          "type": "address"
        },
        {
          "internalType": "uint256[]",
          "name": "",
          "type": "uint256[]"
        },
        {
          "internalType": "uint256[]",
          "name": "",
          "type": "uint256[]"
        },
        {
          "internalType": "bytes",
          "name": "",
          "type": "bytes"
        }
      ],
      "name": "onERC1155BatchReceived",
      "outputs": [
        {
          "internalType": "bytes4",
          "name": "",
          "type": "bytes4"
        }
      ],
      "stateMutability": "pure",
      "type": "function"
    },
    {
      "inputs": [
        {
          "internalType": "address",
          "name": "",
          "type": "address"
        },
        {
          "internalType": "address",
          "name": "",
          "type": "address"
        },
        {
          "internalType": "uint256",
          "name": "",
          "type": "uint256"
        },
        {
          "internalType": "uint256",
          "name": "",
          "type": "uint256"
        },
        {
          "internalType": "bytes",
          "name": "",
          "type": "bytes"
        }
      ],
      "name": "onERC1155Received",
      "outputs": [
        {
          "internalType": "bytes4",
          "name": "",
          "type": "bytes4"
        }
      ],
      "stateMutability": "pure",
      "type": "function"
    },
    {
      "inputs": [
        {
          "internalType": "address",
          "name": "",
          "type": "address"
        },
        {
          "internalType": "address",
          "name": "",
          "type": "address"
        },
        {
          "internalType": "uint256",
          "name": "",
          "type": "uint256"
        },
        {
          "internalType": "bytes",
          "name": "",
          "type": "bytes"
        }
      ],
      "name": "onERC721Received",
      "outputs": [
        {
          "internalType": "bytes4",
          "name": "",
          "type": "bytes4"
        }
      ],
      "stateMutability": "pure",
      "type": "function"
    },
    {
      "inputs": [],
      "name": "owner",
      "outputs": [
        {
          "internalType": "address",
          "name": "",
          "type": "address"
        }
      ],
      "stateMutability": "view",
      "type": "function"
    },
    {
      "inputs": [],
      "name": "proxiableUUID",
      "outputs": [
        {
          "internalType": "bytes32",
          "name": "",
          "type": "bytes32"
        }
      ],
      "stateMutability": "view",
      "type": "function"
    },
    {
      "inputs": [
        {
          "internalType": "bytes4",
          "name": "interfaceId",
          "type": "bytes4"
        }
      ],
      "name": "supportsInterface",
      "outputs": [
        {
          "internalType": "bool",
          "name": "",
          "type": "bool"
        }
      ],
      "stateMutability": "view",
      "type": "function"
    },
    {
      "inputs": [
        {
          "internalType": "address",
          "name": "",
          "type": "address"
        },
        {
          "internalType": "address",
          "name": "",
          "type": "address"
        },
        {
          "internalType": "address",
          "name": "",
          "type": "address"
        },
        {
          "internalType": "uint256",
          "name": "",
          "type": "uint256"
        },
        {
          "internalType": "bytes",
          "name": "",
          "type": "bytes"
        },
        {
          "internalType": "bytes",
          "name": "",
          "type": "bytes"
        }
      ],
      "name": "tokensReceived",
      "outputs": [],
      "stateMutability": "pure",
      "type": "function"
    },
    {
      "inputs": [
        {
          "internalType": "address",
          "name": "newImplementation",
          "type": "address"
        }
      ],
      "name": "upgradeTo",
      "outputs": [],
      "stateMutability": "nonpayable",
      "type": "function"
    },
    {
      "inputs": [
        {
          "internalType": "address",
          "name": "newImplementation",
          "type": "address"
        },
        {
          "internalType": "bytes",
          "name": "data",
          "type": "bytes"
        }
      ],
      "name": "upgradeToAndCall",
      "outputs": [],
      "stateMutability": "payable",
      "type": "function"
    },
    {
      "inputs": [
        {
          "components": [
            {
              "internalType": "address",
              "name": "sender",
              "type": "address"
            },
            {
              "internalType": "uint256",
              "name": "nonce",
              "type": "uint256"
            },
            {
              "internalType": "bytes",
              "name": "initCode",
              "type": "bytes"
            },
            {
              "internalType": "bytes",
              "name": "callData",
              "type": "bytes"
            },
            {
              "internalType": "uint256",
              "name": "callGasLimit",
              "type": "uint256"
            },
            {
              "internalType": "uint256",
              "name": "verificationGasLimit",
              "type": "uint256"
            },
            {
              "internalType": "uint256",
              "name": "preVerificationGas",
              "type": "uint256"
            },
            {
              "internalType": "uint256",
              "name": "maxFeePerGas",
              "type": "uint256"
            },
            {
              "internalType": "uint256",
              "name": "maxPriorityFeePerGas",
              "type": "uint256"
            },
            {
              "internalType": "bytes",
              "name": "paymasterAndData",
              "type": "bytes"
            },
            {
              "internalType": "bytes",
              "name": "signature",
              "type": "bytes"
            }
          ],
          "internalType": "struct UserOperation",
          "name": "userOp",
          "type": "tuple"
        },
        {
          "internalType": "bytes32",
          "name": "userOpHash",
          "type": "bytes32"
        },
        {
          "internalType": "uint256",
          "name": "missingAccountFunds",
          "type": "uint256"
        }
      ],
      "name": "validateUserOp",
      "outputs": [
        {
          "internalType": "uint256",
          "name": "validationData",
          "type": "uint256"
        }
      ],
      "stateMutability": "nonpayable",
      "type": "function"
    },
    {
      "inputs": [
        {
          "internalType": "address payable",
          "name": "withdrawAddress",
          "type": "address"
        },
        {
          "internalType": "uint256",
          "name": "amount",
          "type": "uint256"
        }
      ],
      "name": "withdrawDepositTo",
      "outputs": [],
      "stateMutability": "nonpayable",
      "type": "function"
    },
    {
      "stateMutability": "payable",
      "type": "receive"
    }
  ],
  "bytecode": "0x60c0604052306080523480156200001557600080fd5b5060405162002a9038038062002a9083398101604081905262000038916200011a565b6001600160a01b03811660a052806200005062000058565b50506200014c565b600054610100900460ff1615620000c55760405162461bcd60e51b815260206004820152602760248201527f496e697469616c697a61626c653a20636f6e747261637420697320696e697469604482015266616c697a696e6760c81b606482015260840160405180910390fd5b60005460ff908116101562000118576000805460ff191660ff9081179091556040519081527f7f26b83ff96e1f2b6a682f133852f6798a09c465da95921460cefb38474024989060200160405180910390a15b565b6000602082840312156200012d57600080fd5b81516001600160a01b03811681146200014557600080fd5b9392505050565b60805160a0516128d1620001bf600039600081816103bd01528181610a6901528181610b48015281816110a5015281816112f601528181611544015281816117740152611a180152600081816105f5015281816106aa01528181610c0401528181610cb40152610dfd01526128d16000f3fe60806040526004361061016d5760003560e01c806352d1902d116100cb578063b862268c1161007f578063c4d66de811610059578063c4d66de81461047e578063d087d2881461049e578063f23a6e61146104b357600080fd5b8063b862268c14610401578063bc197c8114610421578063c399ec881461046957600080fd5b80638da5cb5b116100b05780638da5cb5b14610356578063b0d691fe146103ae578063b61d27f6146103e157600080fd5b806352d1902d146103215780636a119bac1461033657600080fd5b806347e1da2a116101225780634c0999c7116101075780634c0999c7146102c15780634d44560d146102ee5780634f1ef2861461030e57600080fd5b806347e1da2a146102995780634a58db19146102b957600080fd5b8063150b7a0211610153578063150b7a02146101d55780633659cfe61461024b5780633a871cdd1461026b57600080fd5b806223de291461017957806301ffc9a7146101a057600080fd5b3661017457005b600080fd5b34801561018557600080fd5b5061019e6101943660046120e2565b5050505050505050565b005b3480156101ac57600080fd5b506101c06101bb366004612193565b6104f9565b60405190151581526020015b60405180910390f35b3480156101e157600080fd5b5061021a6101f03660046121d5565b7f150b7a020000000000000000000000000000000000000000000000000000000095945050505050565b6040517fffffffff0000000000000000000000000000000000000000000000000000000090911681526020016101cc565b34801561025757600080fd5b5061019e610266366004612248565b6105de565b34801561027757600080fd5b5061028b610286366004612265565b6107e8565b6040519081526020016101cc565b3480156102a557600080fd5b5061019e6102b43660046122fe565b6108b1565b61019e610a67565b3480156102cd57600080fd5b506102e16102dc366004612398565b610b0d565b6040516101cc9190612427565b3480156102fa57600080fd5b5061019e61030936600461243a565b610b3e565b61019e61031c366004612495565b610bed565b34801561032d57600080fd5b5061028b610de3565b34801561034257600080fd5b5061019e610351366004612577565b610ecf565b34801561036257600080fd5b506000546103899062010000900473ffffffffffffffffffffffffffffffffffffffff1681565b60405173ffffffffffffffffffffffffffffffffffffffff90911681526020016101cc565b3480156103ba57600080fd5b507f0000000000000000000000000000000000000000000000000000000000000000610389565b3480156103ed57600080fd5b5061019e6103fc3660046125b9565b610f76565b34801561040d57600080fd5b5061019e61041c366004612577565b610fc5565b34801561042d57600080fd5b5061021a61043c366004612615565b7fbc197c810000000000000000000000000000000000000000000000000000000098975050505050505050565b34801561047557600080fd5b5061028b61105f565b34801561048a57600080fd5b5061019e610499366004612248565b611116565b3480156104aa57600080fd5b5061028b6112a9565b3480156104bf57600080fd5b5061021a6104ce3660046126b3565b7ff23a6e61000000000000000000000000000000000000000000000000000000009695505050505050565b60007fffffffff0000000000000000000000000000000000000000000000000000000082167f150b7a0200000000000000000000000000000000000000000000000000000000148061058c57507fffffffff0000000000000000000000000000000000000000000000000000000082167f4e2312e000000000000000000000000000000000000000000000000000000000145b806105d857507fffffffff0000000000000000000000000000000000000000000000000000000082167f01ffc9a700000000000000000000000000000000000000000000000000000000145b92915050565b73ffffffffffffffffffffffffffffffffffffffff7f00000000000000000000000000000000000000000000000000000000000000001630036106a8576040517f08c379a000000000000000000000000000000000000000000000000000000000815260206004820152602c60248201527f46756e6374696f6e206d7573742062652063616c6c6564207468726f7567682060448201527f64656c656761746563616c6c000000000000000000000000000000000000000060648201526084015b60405180910390fd5b7f000000000000000000000000000000000000000000000000000000000000000073ffffffffffffffffffffffffffffffffffffffff1661071d7f360894a13ba1a3210667c828492db98dca3e2076cc3735a920a3ca505d382bbc5473ffffffffffffffffffffffffffffffffffffffff1690565b73ffffffffffffffffffffffffffffffffffffffff16146107c0576040517f08c379a000000000000000000000000000000000000000000000000000000000815260206004820152602c60248201527f46756e6374696f6e206d7573742062652063616c6c6564207468726f7567682060448201527f6163746976652070726f78790000000000000000000000000000000000000000606482015260840161069f565b6107c981611325565b604080516000808252602082019092526107e59183919061132d565b50565b60006107f261152c565b600061080261014086018661271d565b9050111561081b5761081484846115cd565b90506108a1565b600080606561082986610b0d565b6040516108369190612782565b6000604051808303816000865af19150503d8060008114610873576040519150601f19603f3d011682016040523d82523d6000602084013e610878565b606091505b50915091508161088957600161089c565b61089c610897826020015190565b6116b3565b925050505b6108aa826116f1565b9392505050565b6108b961175c565b84811480156108cf57508215806108cf57508281145b610935576040517f08c379a000000000000000000000000000000000000000000000000000000000815260206004820152601360248201527f77726f6e67206172726179206c656e6774687300000000000000000000000000604482015260640161069f565b60008390036109eb5760005b858110156109e5576109d387878381811061095e5761095e61279e565b90506020020160208101906109739190612248565b60008585858181106109875761098761279e565b9050602002810190610999919061271d565b8080601f01602080910402602001604051908101604052809392919081815260200183838082843760009201919091525061182392505050565b806109dd816127cd565b915050610941565b50610a5f565b60005b85811015610a5d57610a4b878783818110610a0b57610a0b61279e565b9050602002016020810190610a209190612248565b868684818110610a3257610a3261279e565b905060200201358585858181106109875761098761279e565b80610a55816127cd565b9150506109ee565b505b505050505050565b7f00000000000000000000000000000000000000000000000000000000000000006040517fb760faf900000000000000000000000000000000000000000000000000000000815230600482015273ffffffffffffffffffffffffffffffffffffffff919091169063b760faf99034906024016000604051808303818588803b158015610af257600080fd5b505af1158015610b06573d6000803e3d6000fd5b5050505050565b6040805160208082528183019092526060916000919060208201818036833750505060208101939093525090919050565b610b466118a0565b7f00000000000000000000000000000000000000000000000000000000000000006040517f205c287800000000000000000000000000000000000000000000000000000000815273ffffffffffffffffffffffffffffffffffffffff848116600483015260248201849052919091169063205c287890604401600060405180830381600087803b158015610bd957600080fd5b505af1158015610a5f573d6000803e3d6000fd5b73ffffffffffffffffffffffffffffffffffffffff7f0000000000000000000000000000000000000000000000000000000000000000163003610cb2576040517f08c379a000000000000000000000000000000000000000000000000000000000815260206004820152602c60248201527f46756e6374696f6e206d7573742062652063616c6c6564207468726f7567682060448201527f64656c656761746563616c6c0000000000000000000000000000000000000000606482015260840161069f565b7f000000000000000000000000000000000000000000000000000000000000000073ffffffffffffffffffffffffffffffffffffffff16610d277f360894a13ba1a3210667c828492db98dca3e2076cc3735a920a3ca505d382bbc5473ffffffffffffffffffffffffffffffffffffffff1690565b73ffffffffffffffffffffffffffffffffffffffff1614610dca576040517f08c379a000000000000000000000000000000000000000000000000000000000815260206004820152602c60248201527f46756e6374696f6e206d7573742062652063616c6c6564207468726f7567682060448201527f6163746976652070726f78790000000000000000000000000000000000000000606482015260840161069f565b610dd382611325565b610ddf8282600161132d565b5050565b60003073ffffffffffffffffffffffffffffffffffffffff7f00000000000000000000000000000000000000000000000000000000000000001614610eaa576040517f08c379a000000000000000000000000000000000000000000000000000000000815260206004820152603860248201527f555550535570677261646561626c653a206d757374206e6f742062652063616c60448201527f6c6564207468726f7567682064656c656761746563616c6c0000000000000000606482015260840161069f565b507f360894a13ba1a3210667c828492db98dca3e2076cc3735a920a3ca505d382bbc90565b610ed7611931565b60005b81811015610f71576001806000858585818110610ef957610ef961279e565b9050602002016020810190610f0e9190612248565b73ffffffffffffffffffffffffffffffffffffffff168152602081019190915260400160002080547fffffffffffffffffffffffffffffffffffffffffffffffffffffffffffffff0016911515919091179055610f6a816127cd565b9050610eda565b505050565b610f7e61175c565b610fbf848484848080601f01602080910402602001604051908101604052809392919081815260200183838082843760009201919091525061182392505050565b50505050565b610fcd611931565b60005b81811015610f715760016000848484818110610fee57610fee61279e565b90506020020160208101906110039190612248565b73ffffffffffffffffffffffffffffffffffffffff168152602081019190915260400160002080547fffffffffffffffffffffffffffffffffffffffffffffffffffffffffffffff00169055611058816127cd565b9050610fd0565b6040517f70a0823100000000000000000000000000000000000000000000000000000000815230600482015260009073ffffffffffffffffffffffffffffffffffffffff7f000000000000000000000000000000000000000000000000000000000000000016906370a08231906024015b602060405180830381865afa1580156110ed573d6000803e3d6000fd5b505050506040513d601f19601f82011682018060405250810190611111919061282c565b905090565b600054610100900460ff16158080156111365750600054600160ff909116105b806111505750303b158015611150575060005460ff166001145b6111dc576040517f08c379a000000000000000000000000000000000000000000000000000000000815260206004820152602e60248201527f496e697469616c697a61626c653a20636f6e747261637420697320616c72656160448201527f647920696e697469616c697a6564000000000000000000000000000000000000606482015260840161069f565b600080547fffffffffffffffffffffffffffffffffffffffffffffffffffffffffffffff00166001179055801561123a57600080547fffffffffffffffffffffffffffffffffffffffffffffffffffffffffffff00ff166101001790555b611243826119c2565b8015610ddf57600080547fffffffffffffffffffffffffffffffffffffffffffffffffffffffffffff00ff169055604051600181527f7f26b83ff96e1f2b6a682f133852f6798a09c465da95921460cefb38474024989060200160405180910390a15050565b6040517f35567e1a0000000000000000000000000000000000000000000000000000000081523060048201526000602482018190529073ffffffffffffffffffffffffffffffffffffffff7f000000000000000000000000000000000000000000000000000000000000000016906335567e1a906044016110d0565b6107e56118a0565b7f4910fdfa16fed3260ed0e7147f7cc6da11a60208b5b9406d12a635614ffd91435460ff161561136057610f7183611a61565b8273ffffffffffffffffffffffffffffffffffffffff166352d1902d6040518163ffffffff1660e01b8152600401602060405180830381865afa9250505080156113e5575060408051601f3d9081017fffffffffffffffffffffffffffffffffffffffffffffffffffffffffffffffe01682019092526113e29181019061282c565b60015b611471576040517f08c379a000000000000000000000000000000000000000000000000000000000815260206004820152602e60248201527f45524331393637557067726164653a206e657720696d706c656d656e7461746960448201527f6f6e206973206e6f742055555053000000000000000000000000000000000000606482015260840161069f565b7f360894a13ba1a3210667c828492db98dca3e2076cc3735a920a3ca505d382bbc8114611520576040517f08c379a000000000000000000000000000000000000000000000000000000000815260206004820152602960248201527f45524331393637557067726164653a20756e737570706f727465642070726f7860448201527f6961626c65555549440000000000000000000000000000000000000000000000606482015260840161069f565b50610f71838383611b6b565b3373ffffffffffffffffffffffffffffffffffffffff7f000000000000000000000000000000000000000000000000000000000000000016146115cb576040517f08c379a000000000000000000000000000000000000000000000000000000000815260206004820152601c60248201527f6163636f756e743a206e6f742066726f6d20456e747279506f696e7400000000604482015260640161069f565b565b600080611627836040517f19457468657265756d205369676e6564204d6573736167653a0a3332000000006020820152603c8101829052600090605c01604051602081830303815290604052805190602001209050919050565b905061167761163a61014086018661271d565b8080601f0160208091040260200160405190810160405280939291908181526020018383808284376000920191909152508593925050611b909050565b60005462010000900473ffffffffffffffffffffffffffffffffffffffff9081169116146116a95760019150506105d8565b5060009392505050565b73ffffffffffffffffffffffffffffffffffffffff811660009081526001602052604081205460ff16156116e957506000919050565b506001919050565b80156107e55760405160009033907fffffffffffffffffffffffffffffffffffffffffffffffffffffffffffffffff90849084818181858888f193505050503d8060008114610b06576040519150601f19603f3d011682016040523d82523d6000602084013e610b06565b3373ffffffffffffffffffffffffffffffffffffffff7f00000000000000000000000000000000000000000000000000000000000000001614806117bd575060005462010000900473ffffffffffffffffffffffffffffffffffffffff1633145b6115cb576040517f08c379a000000000000000000000000000000000000000000000000000000000815260206004820181905260248201527f6163636f756e743a206e6f74204f776e6572206f7220456e747279506f696e74604482015260640161069f565b6000808473ffffffffffffffffffffffffffffffffffffffff16848460405161184c9190612782565b60006040518083038185875af1925050503d8060008114611889576040519150601f19603f3d011682016040523d82523d6000602084013e61188e565b606091505b509150915081610b0657805160208201fd5b60005462010000900473ffffffffffffffffffffffffffffffffffffffff163314806118cb57503330145b6115cb576040517f08c379a000000000000000000000000000000000000000000000000000000000815260206004820152600a60248201527f6f6e6c79206f776e657200000000000000000000000000000000000000000000604482015260640161069f565b3330148061195c575060005462010000900473ffffffffffffffffffffffffffffffffffffffff1633145b6115cb576040517f08c379a000000000000000000000000000000000000000000000000000000000815260206004820152601a60248201527f6163636f756e743a206e6f74204f776e6572206f722053656c66000000000000604482015260640161069f565b600080547fffffffffffffffffffff0000000000000000000000000000000000000000ffff166201000073ffffffffffffffffffffffffffffffffffffffff8481168202929092178084556040519190048216927f0000000000000000000000000000000000000000000000000000000000000000909216917f47e55c76e7a6f1fd8996a1da8008c1ea29699cca35e7bcd057f2dec313b6e5de91a350565b73ffffffffffffffffffffffffffffffffffffffff81163b611b05576040517f08c379a000000000000000000000000000000000000000000000000000000000815260206004820152602d60248201527f455243313936373a206e657720696d706c656d656e746174696f6e206973206e60448201527f6f74206120636f6e747261637400000000000000000000000000000000000000606482015260840161069f565b7f360894a13ba1a3210667c828492db98dca3e2076cc3735a920a3ca505d382bbc80547fffffffffffffffffffffffff00000000000000000000000000000000000000001673ffffffffffffffffffffffffffffffffffffffff92909216919091179055565b611b7483611bb4565b600082511180611b815750805b15610f7157610fbf8383611c01565b6000806000611b9f8585611c26565b91509150611bac81611c6b565b509392505050565b611bbd81611a61565b60405173ffffffffffffffffffffffffffffffffffffffff8216907fbc7cd75a20ee27fd9adebab32041f755214dbc6bffa90cc0225b39da2e5c2d3b90600090a250565b60606108aa838360405180606001604052806027815260200161287560279139611e1e565b6000808251604103611c5c5760208301516040840151606085015160001a611c5087828585611ea3565b94509450505050611c64565b506000905060025b9250929050565b6000816004811115611c7f57611c7f612845565b03611c875750565b6001816004811115611c9b57611c9b612845565b03611d02576040517f08c379a000000000000000000000000000000000000000000000000000000000815260206004820152601860248201527f45434453413a20696e76616c6964207369676e61747572650000000000000000604482015260640161069f565b6002816004811115611d1657611d16612845565b03611d7d576040517f08c379a000000000000000000000000000000000000000000000000000000000815260206004820152601f60248201527f45434453413a20696e76616c6964207369676e6174757265206c656e67746800604482015260640161069f565b6003816004811115611d9157611d91612845565b036107e5576040517f08c379a000000000000000000000000000000000000000000000000000000000815260206004820152602260248201527f45434453413a20696e76616c6964207369676e6174757265202773272076616c60448201527f7565000000000000000000000000000000000000000000000000000000000000606482015260840161069f565b60606000808573ffffffffffffffffffffffffffffffffffffffff1685604051611e489190612782565b600060405180830381855af49150503d8060008114611e83576040519150601f19603f3d011682016040523d82523d6000602084013e611e88565b606091505b5091509150611e9986838387611f92565b9695505050505050565b6000807f7fffffffffffffffffffffffffffffff5d576e7357a4501ddfe92f46681b20a0831115611eda5750600090506003611f89565b6040805160008082526020820180845289905260ff881692820192909252606081018690526080810185905260019060a0016020604051602081039080840390855afa158015611f2e573d6000803e3d6000fd5b50506040517fffffffffffffffffffffffffffffffffffffffffffffffffffffffffffffffe0015191505073ffffffffffffffffffffffffffffffffffffffff8116611f8257600060019250925050611f89565b9150600090505b94509492505050565b606083156120285782516000036120215773ffffffffffffffffffffffffffffffffffffffff85163b612021576040517f08c379a000000000000000000000000000000000000000000000000000000000815260206004820152601d60248201527f416464726573733a2063616c6c20746f206e6f6e2d636f6e7472616374000000604482015260640161069f565b5081612032565b612032838361203a565b949350505050565b81511561204a5781518083602001fd5b806040517f08c379a000000000000000000000000000000000000000000000000000000000815260040161069f9190612427565b73ffffffffffffffffffffffffffffffffffffffff811681146107e557600080fd5b60008083601f8401126120b257600080fd5b50813567ffffffffffffffff8111156120ca57600080fd5b602083019150836020828501011115611c6457600080fd5b60008060008060008060008060c0898b0312156120fe57600080fd5b88356121098161207e565b975060208901356121198161207e565b965060408901356121298161207e565b955060608901359450608089013567ffffffffffffffff8082111561214d57600080fd5b6121598c838d016120a0565b909650945060a08b013591508082111561217257600080fd5b5061217f8b828c016120a0565b999c989b5096995094979396929594505050565b6000602082840312156121a557600080fd5b81357fffffffff00000000000000000000000000000000000000000000000000000000811681146108aa57600080fd5b6000806000806000608086880312156121ed57600080fd5b85356121f88161207e565b945060208601356122088161207e565b935060408601359250606086013567ffffffffffffffff81111561222b57600080fd5b612237888289016120a0565b969995985093965092949392505050565b60006020828403121561225a57600080fd5b81356108aa8161207e565b60008060006060848603121561227a57600080fd5b833567ffffffffffffffff81111561229157600080fd5b840161016081870312156122a457600080fd5b95602085013595506040909401359392505050565b60008083601f8401126122cb57600080fd5b50813567ffffffffffffffff8111156122e357600080fd5b6020830191508360208260051b8501011115611c6457600080fd5b6000806000806000806060878903121561231757600080fd5b863567ffffffffffffffff8082111561232f57600080fd5b61233b8a838b016122b9565b9098509650602089013591508082111561235457600080fd5b6123608a838b016122b9565b9096509450604089013591508082111561237957600080fd5b5061238689828a016122b9565b979a9699509497509295939492505050565b6000602082840312156123aa57600080fd5b5035919050565b60005b838110156123cc5781810151838201526020016123b4565b83811115610fbf5750506000910152565b600081518084526123f58160208601602086016123b1565b601f017fffffffffffffffffffffffffffffffffffffffffffffffffffffffffffffffe0169290920160200192915050565b6020815260006108aa60208301846123dd565b6000806040838503121561244d57600080fd5b82356124588161207e565b946020939093013593505050565b7f4e487b7100000000000000000000000000000000000000000000000000000000600052604160045260246000fd5b600080604083850312156124a857600080fd5b82356124b38161207e565b9150602083013567ffffffffffffffff808211156124d057600080fd5b818501915085601f8301126124e457600080fd5b8135818111156124f6576124f6612466565b604051601f82017fffffffffffffffffffffffffffffffffffffffffffffffffffffffffffffffe0908116603f0116810190838211818310171561253c5761253c612466565b8160405282815288602084870101111561255557600080fd5b8260208601602083013760006020848301015280955050505050509250929050565b6000806020838503121561258a57600080fd5b823567ffffffffffffffff8111156125a157600080fd5b6125ad858286016122b9565b90969095509350505050565b600080600080606085870312156125cf57600080fd5b84356125da8161207e565b935060208501359250604085013567ffffffffffffffff8111156125fd57600080fd5b612609878288016120a0565b95989497509550505050565b60008060008060008060008060a0898b03121561263157600080fd5b883561263c8161207e565b9750602089013561264c8161207e565b9650604089013567ffffffffffffffff8082111561266957600080fd5b6126758c838d016122b9565b909850965060608b013591508082111561268e57600080fd5b61269a8c838d016122b9565b909650945060808b013591508082111561217257600080fd5b60008060008060008060a087890312156126cc57600080fd5b86356126d78161207e565b955060208701356126e78161207e565b94506040870135935060608701359250608087013567ffffffffffffffff81111561271157600080fd5b61238689828a016120a0565b60008083357fffffffffffffffffffffffffffffffffffffffffffffffffffffffffffffffe184360301811261275257600080fd5b83018035915067ffffffffffffffff82111561276d57600080fd5b602001915036819003821315611c6457600080fd5b600082516127948184602087016123b1565b9190910192915050565b7f4e487b7100000000000000000000000000000000000000000000000000000000600052603260045260246000fd5b60007fffffffffffffffffffffffffffffffffffffffffffffffffffffffffffffffff8203612825577f4e487b7100000000000000000000000000000000000000000000000000000000600052601160045260246000fd5b5060010190565b60006020828403121561283e57600080fd5b5051919050565b7f4e487b7100000000000000000000000000000000000000000000000000000000600052602160045260246000fdfe416464726573733a206c6f772d6c6576656c2064656c65676174652063616c6c206661696c6564a2646970667358221220413f1d5cb96bded554bf0febb3049cb34042f11663cf97639919699001a4dc1464736f6c634300080f0033",
  "linkReferences": {},
  "deployedLinkReferences": {}
}